{
  "address": "0x7d5205e906aC93fDCFb8011521832A31f358CD59",
  "abi": [
    {
      "inputs": [
        {
          "internalType": "string",
          "name": "_name",
          "type": "string"
        },
        {
          "internalType": "string",
          "name": "_symbol",
          "type": "string"
        }
      ],
      "stateMutability": "nonpayable",
      "type": "constructor"
    },
    {
      "anonymous": false,
      "inputs": [
        {
          "indexed": true,
          "internalType": "address",
          "name": "owner",
          "type": "address"
        },
        {
          "indexed": true,
          "internalType": "address",
          "name": "approved",
          "type": "address"
        },
        {
          "indexed": true,
          "internalType": "uint256",
          "name": "tokenId",
          "type": "uint256"
        }
      ],
      "name": "Approval",
      "type": "event"
    },
    {
      "anonymous": false,
      "inputs": [
        {
          "indexed": true,
          "internalType": "address",
          "name": "owner",
          "type": "address"
        },
        {
          "indexed": true,
          "internalType": "address",
          "name": "operator",
          "type": "address"
        },
        {
          "indexed": false,
          "internalType": "bool",
          "name": "approved",
          "type": "bool"
        }
      ],
      "name": "ApprovalForAll",
      "type": "event"
    },
    {
      "anonymous": false,
      "inputs": [
        {
          "indexed": true,
          "internalType": "address",
          "name": "from",
          "type": "address"
        },
        {
          "indexed": true,
          "internalType": "address",
          "name": "to",
          "type": "address"
        },
        {
          "indexed": true,
          "internalType": "uint256",
          "name": "tokenId",
          "type": "uint256"
        }
      ],
      "name": "Transfer",
      "type": "event"
    },
    {
      "inputs": [
        {
          "internalType": "address",
          "name": "to",
          "type": "address"
        },
        {
          "internalType": "uint256",
          "name": "tokenId",
          "type": "uint256"
        }
      ],
      "name": "approve",
      "outputs": [],
      "stateMutability": "nonpayable",
      "type": "function"
    },
    {
      "inputs": [
        {
          "internalType": "address",
          "name": "owner",
          "type": "address"
        }
      ],
      "name": "balanceOf",
      "outputs": [
        {
          "internalType": "uint256",
          "name": "",
          "type": "uint256"
        }
      ],
      "stateMutability": "view",
      "type": "function"
    },
    {
      "inputs": [
        {
          "internalType": "uint256",
          "name": "",
          "type": "uint256"
        }
      ],
      "name": "channels",
      "outputs": [
        {
          "internalType": "uint256",
          "name": "id",
          "type": "uint256"
        },
        {
          "internalType": "string",
          "name": "name",
          "type": "string"
        }
      ],
      "stateMutability": "view",
      "type": "function"
    },
    {
      "inputs": [
        {
          "internalType": "string",
          "name": "_name",
          "type": "string"
        }
      ],
      "name": "createChannel",
      "outputs": [],
      "stateMutability": "nonpayable",
      "type": "function"
    },
    {
      "inputs": [
        {
          "internalType": "uint256",
          "name": "tokenId",
          "type": "uint256"
        }
      ],
      "name": "getApproved",
      "outputs": [
        {
          "internalType": "address",
          "name": "",
          "type": "address"
        }
      ],
      "stateMutability": "view",
      "type": "function"
    },
    {
      "inputs": [
        {
          "internalType": "uint256",
          "name": "_id",
          "type": "uint256"
        }
      ],
      "name": "getChannel",
      "outputs": [
        {
          "components": [
            {
              "internalType": "uint256",
              "name": "id",
              "type": "uint256"
            },
            {
              "internalType": "string",
              "name": "name",
              "type": "string"
            }
          ],
          "internalType": "struct Bgcord.Channel",
          "name": "",
          "type": "tuple"
        }
      ],
      "stateMutability": "view",
      "type": "function"
    },
    {
      "inputs": [
        {
          "internalType": "uint256",
          "name": "id",
          "type": "uint256"
        }
      ],
      "name": "getDescription",
      "outputs": [
        {
          "internalType": "string",
          "name": "",
          "type": "string"
        }
      ],
      "stateMutability": "view",
      "type": "function"
    },
    {
      "inputs": [
        {
          "internalType": "uint256",
          "name": "",
          "type": "uint256"
        },
        {
          "internalType": "address",
          "name": "",
          "type": "address"
        }
      ],
      "name": "hasJoined",
      "outputs": [
        {
          "internalType": "bool",
          "name": "",
          "type": "bool"
        }
      ],
      "stateMutability": "view",
      "type": "function"
    },
    {
      "inputs": [
        {
          "internalType": "address",
          "name": "owner",
          "type": "address"
        },
        {
          "internalType": "address",
          "name": "operator",
          "type": "address"
        }
      ],
      "name": "isApprovedForAll",
      "outputs": [
        {
          "internalType": "bool",
          "name": "",
          "type": "bool"
        }
      ],
      "stateMutability": "view",
      "type": "function"
    },
    {
      "inputs": [
        {
          "internalType": "uint256",
          "name": "_id",
          "type": "uint256"
        }
      ],
      "name": "mint",
      "outputs": [],
      "stateMutability": "payable",
      "type": "function"
    },
    {
      "inputs": [],
      "name": "name",
      "outputs": [
        {
          "internalType": "string",
          "name": "",
          "type": "string"
        }
      ],
      "stateMutability": "view",
      "type": "function"
    },
    {
      "inputs": [],
      "name": "owner",
      "outputs": [
        {
          "internalType": "address",
          "name": "",
          "type": "address"
        }
      ],
      "stateMutability": "view",
      "type": "function"
    },
    {
      "inputs": [
        {
          "internalType": "uint256",
          "name": "tokenId",
          "type": "uint256"
        }
      ],
      "name": "ownerOf",
      "outputs": [
        {
          "internalType": "address",
          "name": "",
          "type": "address"
        }
      ],
      "stateMutability": "view",
      "type": "function"
    },
    {
      "inputs": [
        {
          "internalType": "uint256",
          "name": "id",
          "type": "uint256"
        }
      ],
      "name": "renderTokenById",
      "outputs": [
        {
          "internalType": "string",
          "name": "",
          "type": "string"
        }
      ],
      "stateMutability": "view",
      "type": "function"
    },
    {
      "inputs": [
        {
          "internalType": "address",
          "name": "from",
          "type": "address"
        },
        {
          "internalType": "address",
          "name": "to",
          "type": "address"
        },
        {
          "internalType": "uint256",
          "name": "tokenId",
          "type": "uint256"
        }
      ],
      "name": "safeTransferFrom",
      "outputs": [],
      "stateMutability": "nonpayable",
      "type": "function"
    },
    {
      "inputs": [
        {
          "internalType": "address",
          "name": "from",
          "type": "address"
        },
        {
          "internalType": "address",
          "name": "to",
          "type": "address"
        },
        {
          "internalType": "uint256",
          "name": "tokenId",
          "type": "uint256"
        },
        {
          "internalType": "bytes",
          "name": "data",
          "type": "bytes"
        }
      ],
      "name": "safeTransferFrom",
      "outputs": [],
      "stateMutability": "nonpayable",
      "type": "function"
    },
    {
      "inputs": [
        {
          "internalType": "address",
          "name": "operator",
          "type": "address"
        },
        {
          "internalType": "bool",
          "name": "approved",
          "type": "bool"
        }
      ],
      "name": "setApprovalForAll",
      "outputs": [],
      "stateMutability": "nonpayable",
      "type": "function"
    },
    {
      "inputs": [
        {
          "internalType": "bytes4",
          "name": "interfaceId",
          "type": "bytes4"
        }
      ],
      "name": "supportsInterface",
      "outputs": [
        {
          "internalType": "bool",
          "name": "",
          "type": "bool"
        }
      ],
      "stateMutability": "view",
      "type": "function"
    },
    {
      "inputs": [],
      "name": "symbol",
      "outputs": [
        {
          "internalType": "string",
          "name": "",
          "type": "string"
        }
      ],
      "stateMutability": "view",
      "type": "function"
    },
    {
      "inputs": [
        {
          "internalType": "uint256",
          "name": "",
          "type": "uint256"
        }
      ],
      "name": "tokenToChannelId",
      "outputs": [
        {
          "internalType": "uint256",
          "name": "",
          "type": "uint256"
        }
      ],
      "stateMutability": "view",
      "type": "function"
    },
    {
      "inputs": [
        {
          "internalType": "uint256",
          "name": "id",
          "type": "uint256"
        }
      ],
      "name": "tokenURI",
      "outputs": [
        {
          "internalType": "string",
          "name": "",
          "type": "string"
        }
      ],
      "stateMutability": "view",
      "type": "function"
    },
    {
      "inputs": [],
      "name": "totalChannels",
      "outputs": [
        {
          "internalType": "uint256",
          "name": "",
          "type": "uint256"
        }
      ],
      "stateMutability": "view",
      "type": "function"
    },
    {
      "inputs": [],
      "name": "totalSupply",
      "outputs": [
        {
          "internalType": "uint256",
          "name": "",
          "type": "uint256"
        }
      ],
      "stateMutability": "view",
      "type": "function"
    },
    {
      "inputs": [
        {
          "internalType": "address",
          "name": "from",
          "type": "address"
        },
        {
          "internalType": "address",
          "name": "to",
          "type": "address"
        },
        {
          "internalType": "uint256",
          "name": "tokenId",
          "type": "uint256"
        }
      ],
      "name": "transferFrom",
      "outputs": [],
      "stateMutability": "nonpayable",
      "type": "function"
    }
  ],
  "transactionHash": "0x1aa5f0b041ffbc822136414c64afb096bcea2a3ec565b5c42a7e5382d8dc6631",
  "args": [
    "Bgcord",
    "BGD"
  ],
  "numDeployments": 1,
  "solcInputHash": "19e2ed2f42dee67a0bdc0260b088fb37",
  "bytecode": "0x60806040523480156200001157600080fd5b50604051620026f5380380620026f5833981016040819052620000349162000136565b818160006200004483826200022f565b5060016200005382826200022f565b5050600880546001600160a01b0319163317905550620002fb915050565b634e487b7160e01b600052604160045260246000fd5b600082601f8301126200009957600080fd5b81516001600160401b0380821115620000b657620000b662000071565b604051601f8301601f19908116603f01168101908282118183101715620000e157620000e162000071565b81604052838152602092508683858801011115620000fe57600080fd5b600091505b8382101562000122578582018301518183018401529082019062000103565b600093810190920192909252949350505050565b600080604083850312156200014a57600080fd5b82516001600160401b03808211156200016257600080fd5b620001708683870162000087565b935060208501519150808211156200018757600080fd5b50620001968582860162000087565b9150509250929050565b600181811c90821680620001b557607f821691505b602082108103620001d657634e487b7160e01b600052602260045260246000fd5b50919050565b601f8211156200022a57600081815260208120601f850160051c81016020861015620002055750805b601f850160051c820191505b81811015620002265782815560010162000211565b5050505b505050565b81516001600160401b038111156200024b576200024b62000071565b62000263816200025c8454620001a0565b84620001dc565b602080601f8311600181146200029b5760008415620002825750858301515b600019600386901b1c1916600185901b17855562000226565b600085815260208120601f198616915b82811015620002cc57888601518255948401946001909101908401620002ab565b5085821015620002eb5787850151600019600388901b60f8161c191681555b5050505050600190811b01905550565b6123ea806200030b6000396000f3fe60806040526004361061014b5760003560e01c806370a08231116100b6578063a2d6c6da1161006f578063a2d6c6da146103d8578063b88d4fde146103f8578063c87b56dd14610418578063cb6af4cb14610438578063e5949b5d14610458578063e985e9c51461048657600080fd5b806370a082311461033a5780637734a9f61461035a5780638da5cb5b1461037057806395d89b4114610390578063a0712d68146103a5578063a22cb465146103b857600080fd5b806323b872dd1161010857806323b872dd1461025257806342842e0e146102725780634925ec55146102925780636352211e146102b257806368194719146102d25780636b09d4b21461030d57600080fd5b806301ffc9a71461015057806306fdde0314610185578063081812fc146101a7578063095ea7b3146101df57806310df54a01461020157806318160ddd1461022e575b600080fd5b34801561015c57600080fd5b5061017061016b3660046119b3565b6104a6565b60405190151581526020015b60405180910390f35b34801561019157600080fd5b5061019a6104f8565b60405161017c9190611a20565b3480156101b357600080fd5b506101c76101c2366004611a33565b61058a565b6040516001600160a01b03909116815260200161017c565b3480156101eb57600080fd5b506101ff6101fa366004611a68565b6105b1565b005b34801561020d57600080fd5b5061022161021c366004611a33565b6106cb565b60405161017c9190611a92565b34801561023a57600080fd5b5061024460065481565b60405190815260200161017c565b34801561025e57600080fd5b506101ff61026d366004611ab7565b6107a1565b34801561027e57600080fd5b506101ff61028d366004611ab7565b6107d2565b34801561029e57600080fd5b5061019a6102ad366004611a33565b6107ed565b3480156102be57600080fd5b506101c76102cd366004611a33565b6108e4565b3480156102de57600080fd5b506101706102ed366004611af3565b600a60209081526000928352604080842090915290825290205460ff1681565b34801561031957600080fd5b50610244610328366004611a33565b600b6020526000908152604090205481565b34801561034657600080fd5b50610244610355366004611b1f565b610944565b34801561036657600080fd5b5061024460075481565b34801561037c57600080fd5b506008546101c7906001600160a01b031681565b34801561039c57600080fd5b5061019a6109ca565b6101ff6103b3366004611a33565b6109d9565b3480156103c457600080fd5b506101ff6103d3366004611b3a565b610a77565b3480156103e457600080fd5b5061019a6103f3366004611a33565b610a86565b34801561040457600080fd5b506101ff610413366004611c02565b610b64565b34801561042457600080fd5b5061019a610433366004611a33565b610b9c565b34801561044457600080fd5b506101ff610453366004611c7e565b610d51565b34801561046457600080fd5b50610478610473366004611a33565b610db9565b60405161017c929190611cc7565b34801561049257600080fd5b506101706104a1366004611ce0565b610e5e565b60006001600160e01b031982166380ac58cd60e01b14806104d757506001600160e01b03198216635b5e139f60e01b145b806104f257506301ffc9a760e01b6001600160e01b03198316145b92915050565b60606000805461050790611d0a565b80601f016020809104026020016040519081016040528092919081815260200182805461053390611d0a565b80156105805780601f1061055557610100808354040283529160200191610580565b820191906000526020600020905b81548152906001019060200180831161056357829003601f168201915b5050505050905090565b600061059582610e8c565b506000908152600460205260409020546001600160a01b031690565b60006105bc826108e4565b9050806001600160a01b0316836001600160a01b03160361062e5760405162461bcd60e51b815260206004820152602160248201527f4552433732313a20617070726f76616c20746f2063757272656e74206f776e656044820152603960f91b60648201526084015b60405180910390fd5b336001600160a01b038216148061064a575061064a8133610e5e565b6106bc5760405162461bcd60e51b815260206004820152603d60248201527f4552433732313a20617070726f76652063616c6c6572206973206e6f7420746f60448201527f6b656e206f776e6572206f7220617070726f76656420666f7220616c6c0000006064820152608401610625565b6106c68383610eeb565b505050565b604080518082019091526000815260606020820152600960008381526020019081526020016000206040518060400160405290816000820154815260200160018201805461071890611d0a565b80601f016020809104026020016040519081016040528092919081815260200182805461074490611d0a565b80156107915780601f1061076657610100808354040283529160200191610791565b820191906000526020600020905b81548152906001019060200180831161077457829003601f168201915b5050505050815250509050919050565b6107ab3382610f59565b6107c75760405162461bcd60e51b815260040161062590611d44565b6106c6838383610fb8565b6106c683838360405180602001604052806000815250610b64565b6000818152600b60209081526040808320548084526009835281842082518084019093528054835260018101805460609693959394938401919061083090611d0a565b80601f016020809104026020016040519081016040528092919081815260200182805461085c90611d0a565b80156108a95780601f1061087e576101008083540402835291602001916108a9565b820191906000526020600020905b81548152906001019060200180831161088c57829003601f168201915b5050505050815250509050600081602001516040516020016108cb9190611dad565b60408051601f1981840301815291905295945050505050565b6000818152600260205260408120546001600160a01b0316806104f25760405162461bcd60e51b8152602060048201526018602482015277115490cdcc8c4e881a5b9d985b1a59081d1bdad95b88125160421b6044820152606401610625565b60006001600160a01b0382166109ae5760405162461bcd60e51b815260206004820152602960248201527f4552433732313a2061646472657373207a65726f206973206e6f7420612076616044820152683634b21037bbb732b960b91b6064820152608401610625565b506001600160a01b031660009081526003602052604090205490565b60606001805461050790611d0a565b806000036109e657600080fd5b6007548111156109f557600080fd5b6000818152600a6020908152604080832033845290915290205460ff1615610a1c57600080fd5b6000818152600a602090815260408083203384529091528120805460ff191660011790556006805491610a4e83611e05565b9091555050600680546000908152600b6020526040902082905554610a7490339061111c565b50565b610a82338383611136565b5050565b6000818152600b602090815260408083205480845260098352818420825180840190935280548352600181018054606096939593949384019190610ac990611d0a565b80601f0160208091040260200160405190810160405280929190818152602001828054610af590611d0a565b8015610b425780601f10610b1757610100808354040283529160200191610b42565b820191906000526020600020905b815481529060010190602001808311610b2557829003601f168201915b5050509190925250506040805160008152602081019091529695505050505050565b610b6e3383610f59565b610b8a5760405162461bcd60e51b815260040161062590611d44565b610b9684848484611204565b50505050565b6000818152600b602090815260408083205480845260098352818420825180840190935280548352600181018054606096939593949384019190610bdf90611d0a565b80601f0160208091040260200160405190810160405280929190818152602001828054610c0b90611d0a565b8015610c585780601f10610c2d57610100808354040283529160200191610c58565b820191906000526020600020905b815481529060010190602001808311610c3b57829003601f168201915b50505050508152505090506000610c6e85611237565b604051602001610c7e9190611e1e565b604051602081830303815290604052905060008260200151604051602001610ca69190611dad565b60405160208183030381529060405290506000610cca610cc5886112ca565b6112fe565b9050610d268383610cda8a611237565b8760200151610cfc6014610ced8e6108e4565b6001600160a01b031690611463565b86604051602001610d1296959493929190611e4e565b6040516020818303038152906040526112fe565b604051602001610d369190611fe5565b60405160208183030381529060405295505050505050919050565b6008546001600160a01b03163314610d6857600080fd5b60078054906000610d7883611e05565b90915550506040805180820182526007548082526020808301858152600092835260099091529290208151815591519091906001820190610b969082612078565b60096020526000908152604090208054600182018054919291610ddb90611d0a565b80601f0160208091040260200160405190810160405280929190818152602001828054610e0790611d0a565b8015610e545780601f10610e2957610100808354040283529160200191610e54565b820191906000526020600020905b815481529060010190602001808311610e3757829003601f168201915b5050505050905082565b6001600160a01b03918216600090815260056020908152604080832093909416825291909152205460ff1690565b6000818152600260205260409020546001600160a01b0316610a745760405162461bcd60e51b8152602060048201526018602482015277115490cdcc8c4e881a5b9d985b1a59081d1bdad95b88125160421b6044820152606401610625565b600081815260046020526040902080546001600160a01b0319166001600160a01b0384169081179091558190610f20826108e4565b6001600160a01b03167f8c5be1e5ebec7d5bd14f71427d1e84f3dd0314c0f7b2291e5b200ac8c7c3b92560405160405180910390a45050565b600080610f65836108e4565b9050806001600160a01b0316846001600160a01b03161480610f8c5750610f8c8185610e5e565b80610fb05750836001600160a01b0316610fa58461058a565b6001600160a01b0316145b949350505050565b826001600160a01b0316610fcb826108e4565b6001600160a01b031614610ff15760405162461bcd60e51b815260040161062590612138565b6001600160a01b0382166110535760405162461bcd60e51b8152602060048201526024808201527f4552433732313a207472616e7366657220746f20746865207a65726f206164646044820152637265737360e01b6064820152608401610625565b826001600160a01b0316611066826108e4565b6001600160a01b03161461108c5760405162461bcd60e51b815260040161062590612138565b600081815260046020908152604080832080546001600160a01b03199081169091556001600160a01b0387811680865260038552838620805460001901905590871680865283862080546001019055868652600290945282852080549092168417909155905184937fddf252ad1be2c89b69c2b068fc378daa952ba7f163c4a11628f55a4df523b3ef91a4505050565b610a82828260405180602001604052806000815250611606565b816001600160a01b0316836001600160a01b0316036111975760405162461bcd60e51b815260206004820152601960248201527f4552433732313a20617070726f766520746f2063616c6c6572000000000000006044820152606401610625565b6001600160a01b03838116600081815260056020908152604080832094871680845294825291829020805460ff191686151590811790915591519182527f17307eab39ab6107e8899845ad3d59bd9653f200f220920489ca2b5937696c31910160405180910390a3505050565b61120f848484610fb8565b61121b84848484611639565b610b965760405162461bcd60e51b81526004016106259061217d565b606060006112448361173a565b600101905060008167ffffffffffffffff81111561126457611264611b76565b6040519080825280601f01601f19166020018201604052801561128e576020820181803683370190505b5090508181016020015b600019016f181899199a1a9b1b9c1cb0b131b232b360811b600a86061a8153600a850494508461129857509392505050565b606060006112d783610a86565b6040516020016112e791906121cf565b60408051601f198184030181529190529392505050565b6060815160000361131d57505060408051602081019091526000815290565b6000604051806060016040528060408152602001612375604091399050600060038451600261134c91906122a1565b61135691906122b4565b6113619060046122d6565b905060006113708260206122a1565b67ffffffffffffffff81111561138857611388611b76565b6040519080825280601f01601f1916602001820160405280156113b2576020820181803683370190505b509050818152600183018586518101602084015b8183101561141e576003830192508251603f8160121c168501518253600182019150603f81600c1c168501518253600182019150603f8160061c168501518253600182019150603f81168501518253506001016113c6565b600389510660018114611438576002811461144957611455565b613d3d60f01b600119830152611455565b603d60f81b6000198301525b509398975050505050505050565b606060006114728360026122d6565b61147d9060026122a1565b67ffffffffffffffff81111561149557611495611b76565b6040519080825280601f01601f1916602001820160405280156114bf576020820181803683370190505b509050600360fc1b816000815181106114da576114da6122ed565b60200101906001600160f81b031916908160001a905350600f60fb1b81600181518110611509576115096122ed565b60200101906001600160f81b031916908160001a905350600061152d8460026122d6565b6115389060016122a1565b90505b60018111156115b0576f181899199a1a9b1b9c1cb0b131b232b360811b85600f166010811061156c5761156c6122ed565b1a60f81b828281518110611582576115826122ed565b60200101906001600160f81b031916908160001a90535060049490941c936115a981612303565b905061153b565b5083156115ff5760405162461bcd60e51b815260206004820181905260248201527f537472696e67733a20686578206c656e67746820696e73756666696369656e746044820152606401610625565b9392505050565b6116108383611812565b61161d6000848484611639565b6106c65760405162461bcd60e51b81526004016106259061217d565b60006001600160a01b0384163b1561172f57604051630a85bd0160e11b81526001600160a01b0385169063150b7a029061167d90339089908890889060040161231a565b6020604051808303816000875af19250505080156116b8575060408051601f3d908101601f191682019092526116b591810190612357565b60015b611715573d8080156116e6576040519150601f19603f3d011682016040523d82523d6000602084013e6116eb565b606091505b50805160000361170d5760405162461bcd60e51b81526004016106259061217d565b805181602001fd5b6001600160e01b031916630a85bd0160e11b149050610fb0565b506001949350505050565b60008072184f03e93ff9f4daa797ed6e38ed64bf6a1f0160401b83106117795772184f03e93ff9f4daa797ed6e38ed64bf6a1f0160401b830492506040015b6d04ee2d6d415b85acef810000000083106117a5576d04ee2d6d415b85acef8100000000830492506020015b662386f26fc1000083106117c357662386f26fc10000830492506010015b6305f5e10083106117db576305f5e100830492506008015b61271083106117ef57612710830492506004015b60648310611801576064830492506002015b600a83106104f25760010192915050565b6001600160a01b0382166118685760405162461bcd60e51b815260206004820181905260248201527f4552433732313a206d696e7420746f20746865207a65726f20616464726573736044820152606401610625565b6000818152600260205260409020546001600160a01b0316156118cd5760405162461bcd60e51b815260206004820152601c60248201527f4552433732313a20746f6b656e20616c7265616479206d696e746564000000006044820152606401610625565b6000818152600260205260409020546001600160a01b0316156119325760405162461bcd60e51b815260206004820152601c60248201527f4552433732313a20746f6b656e20616c7265616479206d696e746564000000006044820152606401610625565b6001600160a01b038216600081815260036020908152604080832080546001019055848352600290915280822080546001600160a01b0319168417905551839291907fddf252ad1be2c89b69c2b068fc378daa952ba7f163c4a11628f55a4df523b3ef908290a45050565b6001600160e01b031981168114610a7457600080fd5b6000602082840312156119c557600080fd5b81356115ff8161199d565b60005b838110156119eb5781810151838201526020016119d3565b50506000910152565b60008151808452611a0c8160208601602086016119d0565b601f01601f19169290920160200192915050565b6020815260006115ff60208301846119f4565b600060208284031215611a4557600080fd5b5035919050565b80356001600160a01b0381168114611a6357600080fd5b919050565b60008060408385031215611a7b57600080fd5b611a8483611a4c565b946020939093013593505050565b602081528151602082015260006020830151604080840152610fb060608401826119f4565b600080600060608486031215611acc57600080fd5b611ad584611a4c565b9250611ae360208501611a4c565b9150604084013590509250925092565b60008060408385031215611b0657600080fd5b82359150611b1660208401611a4c565b90509250929050565b600060208284031215611b3157600080fd5b6115ff82611a4c565b60008060408385031215611b4d57600080fd5b611b5683611a4c565b915060208301358015158114611b6b57600080fd5b809150509250929050565b634e487b7160e01b600052604160045260246000fd5b600067ffffffffffffffff80841115611ba757611ba7611b76565b604051601f8501601f19908116603f01168101908282118183101715611bcf57611bcf611b76565b81604052809350858152868686011115611be857600080fd5b858560208301376000602087830101525050509392505050565b60008060008060808587031215611c1857600080fd5b611c2185611a4c565b9350611c2f60208601611a4c565b925060408501359150606085013567ffffffffffffffff811115611c5257600080fd5b8501601f81018713611c6357600080fd5b611c7287823560208401611b8c565b91505092959194509250565b600060208284031215611c9057600080fd5b813567ffffffffffffffff811115611ca757600080fd5b8201601f81018413611cb857600080fd5b610fb084823560208401611b8c565b828152604060208201526000610fb060408301846119f4565b60008060408385031215611cf357600080fd5b611cfc83611a4c565b9150611b1660208401611a4c565b600181811c90821680611d1e57607f821691505b602082108103611d3e57634e487b7160e01b600052602260045260246000fd5b50919050565b6020808252602d908201527f4552433732313a2063616c6c6572206973206e6f7420746f6b656e206f776e6560408201526c1c881bdc88185c1c1c9bdd9959609a1b606082015260800190565b60008151611da38185602086016119d0565b9290920192915050565b67027333a103337b9160c51b815260008251611dd08160088501602087016119d0565b670818da185b9b995b60c21b6008939091019283015250601001919050565b634e487b7160e01b600052601160045260246000fd5b600060018201611e1757611e17611def565b5060010190565b674267636f7264202360c01b815260008251611e418160088501602087016119d0565b9190910160080192915050565b683d913730b6b2911d1160b91b81528651600090611e73816009850160208c016119d0565b701116113232b9b1b934b83a34b7b7111d1160791b6009918401918201528751611ea481601a840160208c016119d0565b7f222c2265787465726e616c5f75726c223a2268747470733a2f2f796f7572436f601a9290910191820152736c6c65637469626c652e636f6d2f746f6b656e2f60601b603a8201528651611eff81604e840160208b016119d0565b7f222c2261747472696275746573223a5b7b2274726169745f74797065223a2243604e9290910191820152703430b73732b61116113b30b63ab2911d1160791b606e820152611fd8611fca611fc4611f9b611f83611f7d611f63607f88018d611d91565b6d113eae96101137bbb732b9111d1160911b8152600e0190565b8a611d91565b6b11161134b6b0b3b2911d101160a11b8152600c0190565b7f646174613a696d6167652f7376672b786d6c3b6261736536342c0000000000008152601a0190565b86611d91565b61227d60f01b815260020190565b9998505050505050505050565b7f646174613a6170706c69636174696f6e2f6a736f6e3b6261736536342c00000081526000825161201d81601d8501602087016119d0565b91909101601d0192915050565b601f8211156106c657600081815260208120601f850160051c810160208610156120515750805b601f850160051c820191505b818110156120705782815560010161205d565b505050505050565b815167ffffffffffffffff81111561209257612092611b76565b6120a6816120a08454611d0a565b8461202a565b602080601f8311600181146120db57600084156120c35750858301515b600019600386901b1c1916600185901b178555612070565b600085815260208120601f198616915b8281101561210a578886015182559484019460019091019084016120eb565b50858210156121285787850151600019600388901b60f8161c191681555b5050505050600190811b01905550565b60208082526025908201527f4552433732313a207472616e736665722066726f6d20696e636f72726563742060408201526437bbb732b960d91b606082015260800190565b60208082526032908201527f4552433732313a207472616e7366657220746f206e6f6e20455243373231526560408201527131b2b4bb32b91034b6b83632b6b2b73a32b960711b606082015260800190565b7f3c73766720786d6c6e733d22687474703a2f2f7777772e77332e6f72672f323081527f30302f7376672220786d6c6e733a786c696e6b3d22687474703a2f2f7777772e60208201527f77332e6f72672f313939392f786c696e6b222077696474683d2233303022206860408201527f65696768743d22333030222076696577426f783d223020302038383020383830606082015261111f60f11b6080820152600082516122848160828501602087016119d0565b651e17b9bb339f60d11b6082939091019283015250608801919050565b808201808211156104f2576104f2611def565b6000826122d157634e487b7160e01b600052601260045260246000fd5b500490565b80820281158282048414176104f2576104f2611def565b634e487b7160e01b600052603260045260246000fd5b60008161231257612312611def565b506000190190565b6001600160a01b038581168252841660208201526040810183905260806060820181905260009061234d908301846119f4565b9695505050505050565b60006020828403121561236957600080fd5b81516115ff8161199d56fe4142434445464748494a4b4c4d4e4f505152535455565758595a6162636465666768696a6b6c6d6e6f707172737475767778797a303132333435363738392b2fa26469706673582212201115a2af61abdddce9081bd9be0503fe78fac12e9bb7b478069f430981f501c264736f6c63430008110033",
  "devdoc": {
    "kind": "dev",
    "methods": {
      "approve(address,uint256)": {
        "details": "See {IERC721-approve}."
      },
      "balanceOf(address)": {
        "details": "See {IERC721-balanceOf}."
      },
      "getApproved(uint256)": {
        "details": "See {IERC721-getApproved}."
      },
      "isApprovedForAll(address,address)": {
        "details": "See {IERC721-isApprovedForAll}."
      },
      "name()": {
        "details": "See {IERC721Metadata-name}."
      },
      "ownerOf(uint256)": {
        "details": "See {IERC721-ownerOf}."
      },
      "safeTransferFrom(address,address,uint256)": {
        "details": "See {IERC721-safeTransferFrom}."
      },
      "safeTransferFrom(address,address,uint256,bytes)": {
        "details": "See {IERC721-safeTransferFrom}."
      },
      "setApprovalForAll(address,bool)": {
        "details": "See {IERC721-setApprovalForAll}."
      },
      "supportsInterface(bytes4)": {
        "details": "See {IERC165-supportsInterface}."
      },
      "symbol()": {
        "details": "See {IERC721Metadata-symbol}."
      },
      "transferFrom(address,address,uint256)": {
        "details": "See {IERC721-transferFrom}."
      }
    },
    "version": 1
  },
  "userdoc": {
    "kind": "user",
    "methods": {},
    "version": 1
  },
  "storageLayout": {
    "storage": [
      {
        "astId": 25,
        "contract": "contracts/Bgcord.sol:Bgcord",
        "label": "_name",
        "offset": 0,
        "slot": "0",
        "type": "t_string_storage"
      },
      {
        "astId": 27,
        "contract": "contracts/Bgcord.sol:Bgcord",
        "label": "_symbol",
        "offset": 0,
        "slot": "1",
        "type": "t_string_storage"
      },
      {
        "astId": 31,
        "contract": "contracts/Bgcord.sol:Bgcord",
        "label": "_owners",
        "offset": 0,
        "slot": "2",
        "type": "t_mapping(t_uint256,t_address)"
      },
      {
        "astId": 35,
        "contract": "contracts/Bgcord.sol:Bgcord",
        "label": "_balances",
        "offset": 0,
        "slot": "3",
        "type": "t_mapping(t_address,t_uint256)"
      },
      {
        "astId": 39,
        "contract": "contracts/Bgcord.sol:Bgcord",
        "label": "_tokenApprovals",
        "offset": 0,
        "slot": "4",
        "type": "t_mapping(t_uint256,t_address)"
      },
      {
        "astId": 45,
        "contract": "contracts/Bgcord.sol:Bgcord",
        "label": "_operatorApprovals",
        "offset": 0,
        "slot": "5",
        "type": "t_mapping(t_address,t_mapping(t_address,t_bool))"
      },
      {
        "astId": 2805,
        "contract": "contracts/Bgcord.sol:Bgcord",
        "label": "totalSupply",
        "offset": 0,
        "slot": "6",
        "type": "t_uint256"
      },
      {
        "astId": 2807,
        "contract": "contracts/Bgcord.sol:Bgcord",
        "label": "totalChannels",
        "offset": 0,
        "slot": "7",
        "type": "t_uint256"
      },
      {
        "astId": 2809,
        "contract": "contracts/Bgcord.sol:Bgcord",
        "label": "owner",
        "offset": 0,
        "slot": "8",
        "type": "t_address"
      },
      {
        "astId": 2819,
        "contract": "contracts/Bgcord.sol:Bgcord",
        "label": "channels",
        "offset": 0,
        "slot": "9",
        "type": "t_mapping(t_uint256,t_struct(Channel)2814_storage)"
      },
      {
        "astId": 2825,
        "contract": "contracts/Bgcord.sol:Bgcord",
        "label": "hasJoined",
        "offset": 0,
        "slot": "10",
        "type": "t_mapping(t_uint256,t_mapping(t_address,t_bool))"
      },
      {
        "astId": 2829,
        "contract": "contracts/Bgcord.sol:Bgcord",
        "label": "tokenToChannelId",
        "offset": 0,
        "slot": "11",
        "type": "t_mapping(t_uint256,t_uint256)"
      }
    ],
    "types": {
      "t_address": {
        "encoding": "inplace",
        "label": "address",
        "numberOfBytes": "20"
      },
      "t_bool": {
        "encoding": "inplace",
        "label": "bool",
        "numberOfBytes": "1"
      },
      "t_mapping(t_address,t_bool)": {
        "encoding": "mapping",
        "key": "t_address",
        "label": "mapping(address => bool)",
        "numberOfBytes": "32",
        "value": "t_bool"
      },
      "t_mapping(t_address,t_mapping(t_address,t_bool))": {
        "encoding": "mapping",
        "key": "t_address",
        "label": "mapping(address => mapping(address => bool))",
        "numberOfBytes": "32",
        "value": "t_mapping(t_address,t_bool)"
      },
      "t_mapping(t_address,t_uint256)": {
        "encoding": "mapping",
        "key": "t_address",
        "label": "mapping(address => uint256)",
        "numberOfBytes": "32",
        "value": "t_uint256"
      },
      "t_mapping(t_uint256,t_address)": {
        "encoding": "mapping",
        "key": "t_uint256",
        "label": "mapping(uint256 => address)",
        "numberOfBytes": "32",
        "value": "t_address"
      },
      "t_mapping(t_uint256,t_mapping(t_address,t_bool))": {
        "encoding": "mapping",
        "key": "t_uint256",
        "label": "mapping(uint256 => mapping(address => bool))",
        "numberOfBytes": "32",
        "value": "t_mapping(t_address,t_bool)"
      },
      "t_mapping(t_uint256,t_struct(Channel)2814_storage)": {
        "encoding": "mapping",
        "key": "t_uint256",
        "label": "mapping(uint256 => struct Bgcord.Channel)",
        "numberOfBytes": "32",
        "value": "t_struct(Channel)2814_storage"
      },
      "t_mapping(t_uint256,t_uint256)": {
        "encoding": "mapping",
        "key": "t_uint256",
        "label": "mapping(uint256 => uint256)",
        "numberOfBytes": "32",
        "value": "t_uint256"
      },
      "t_string_storage": {
        "encoding": "bytes",
        "label": "string",
        "numberOfBytes": "32"
      },
      "t_struct(Channel)2814_storage": {
        "encoding": "inplace",
        "label": "struct Bgcord.Channel",
        "members": [
          {
            "astId": 2811,
            "contract": "contracts/Bgcord.sol:Bgcord",
            "label": "id",
            "offset": 0,
            "slot": "0",
            "type": "t_uint256"
          },
          {
            "astId": 2813,
            "contract": "contracts/Bgcord.sol:Bgcord",
            "label": "name",
            "offset": 0,
            "slot": "1",
            "type": "t_string_storage"
          }
        ],
        "numberOfBytes": "64"
      },
      "t_uint256": {
        "encoding": "inplace",
        "label": "uint256",
        "numberOfBytes": "32"
      }
    }
  }
}